:020000040800F2
:1000000000000220110A00080D0A00088977000884
:100010000D0A00080D0A00080D0A00080000000083
:100020000000000000000000000000000D0A0008B1
:100030000D0A0008000000000D0A00080D770008F6
:100040000D0A00080D0A00080D0A00080D0A000834
:100050000D0A00080D0A00080D0A00080D0A000824
:100060000D0A00080D0A00080D0A0008A164000826
:10007000AD640008814D0008B9640008C56400083B
:1000800041260108855900080D0A00080D0A0008DC
:100090000D0A00080D0A00080D0A00080D0A0008E4
:1000A0000D0A00080D0A00080D0A00080D0A0008D4
:1000B0002D1A0108391A0108451A0108B959000812
:1000C0000D0A0008C55900080D0A000879700008DB
:1000D0008570000875240108A1240108D5240108B1
:1000E0000D0A00080D0A0008000000000D0A0008B3
:1000F0000D0A00080D0A00080D0A00080D0A000884
:100100000D0A00080D0A0008511A01089170000834
:10011000092501083D2501084D5000080D0A000879
:100120003550000841500008B5700008E97000081B
:10013000752601080D0A00080D0A00080D0A0008BE
:1001400000000000000000000000000000000000AF
:100150000D0A00080D0A00080D0A000871250108A3
:10016000D15900080D0A00081D77000841770008E2
:100170000D0A0008657700080D0A00080D0A00083E
:100180000D0A00080D0A0008A5250108D925010857
:100190009D700008A97000080D0A00080D0A0008EB
:1001A0000D0A00080D0A00080D0A00080D0A0008D3
:1001B000C16100080D0A00080D0A00080D0A0008B8
:1001C0000D0A00080D0A00080D0A00080D0A0008B3
:1001D0000D0A00080D0A00080D0A00080D0A0008A3
:1001E0000D0A00080D0A00080D0A00080D0A000893
:1001F0000D0A00080D0A00080D0A00080D0A000883
:100200000D0A00080D0A00080D0A00080D0A000872
:100210000D0A00080D0A00080D0A00080D0A000862
:100220000D0A00080D0A00080D0A00080000000071
:100230000D0A00080D0A0008000000000D0A000861
:100240000D0A00080D0A00080D0A00080D0A000832
:100250000D0A00080D0A00080D0A00080D0A000822
:100260000D0A00080D0A00080D0A00080D0A000812
:100270000D0A00080D0A00080D2601080000000004
:100280000D0A00080D0A00080D0A00080000000011
:08029000000000000D0A000847
:1002A00010B5054C237833B9044B13B10448AFF3B0
:1002B00000800123237010BDF00300240000000023
:1002C0007C7E010808B5034B1BB103490348AFF31B
:1002D000008008BD00000000F40300247C7E0108BB
:1002E00001F0FF01102A2BDB10F0070F08D010F8E7
:1002F000013B013A8B422DD010F0070F42B3F6D1EB
:10030000F0B441EA012141EA014122F007047FF003
:1003100000070023F0E80256083C85EA010586EA5A
:10032000010685FA47F5A3FA87F586FA47F6A5FA96
:1003300087F68EB9EED1F0BC01F0FF0102F00702A2
:1003400032B110F8013B013A83EA010313B1F8D14D
:100350000020704701387047002D06BF354603382E
:10036000073815F0010F07D1013015F4807F02BF67
:10037000013015F4C03F0130F0BC0138704700BFB8
:10038000034613F8012B002AFBD1181A01387047D5
:1003900081F0004102E000BF83F0004330B54FEA36
:1003A00041044FEA430594EA050F08BF90EA020FA3
:1003B0001FBF54EA000C55EA020C7FEA645C7FEA36
:1003C000655C00F0E2804FEA5454D4EB5555B8BF59
:1003D0006D420CDD2C4480EA020281EA030382EACA
:1003E000000083EA010180EA020281EA0303362D5C
:1003F00088BF30BD11F0004F4FEA01314FF4801C2F
:100400004CEA113102D0404261EB410113F0004F40
:100410004FEA03334CEA133302D0524263EB4303F7
:1004200094EA050F00F0A780A4F10104D5F1200E95
:100430000DDB02FA0EFC22FA05F2801841F10001F0
:1004400003FA0EF2801843FA05F359410EE0A5F1C4
:1004500020050EF1200E012A03FA0EFC28BF4CF0F5
:10046000020C43FA05F3C01851EBE37101F00045AB
:1004700007D54FF0000EDCF1000C7EEB00006EEBB8
:100480000101B1F5801F1BD3B1F5001F0CD3490842
:100490005FEA30004FEA3C0C04F101044FEA445299
:1004A00012F5800F80F09A80BCF1004F08BF5FEA20
:1004B000500C50F1000041EB045141EA050130BD00
:1004C0005FEA4C0C404141EB0101013C28BFB1F512
:1004D000801FE9D291F0000F04BF01460020B1FA5D
:1004E00081F308BF2033A3F10B03B3F120020CDA30
:1004F0000C3208DD02F1140CC2F10C0201FA0CF00E
:1005000021FA02F10CE002F11402D8BFC2F1200C72
:1005100001FA02F120FA0CFCDCBF41EA0C01904028
:10052000E41AA2BF01EB0451294330BD6FEA040471
:100530001F3C1CDA0C340EDC04F11404C4F120025C
:1005400020FA04F001FA02F340EA030021FA04F36E
:1005500045EA030130BDC4F10C04C4F1200220FAC5
:1005600002F001FA04F340EA0300294630BD21FA03
:1005700004F0294630BD94F0000F83F4801306BFC9
:1005800081F480110134013D4EE77FEA645C18BFBD
:100590007FEA655C29D094EA050F08BF90EA020F54
:1005A00005D054EA000C04BF1946104630BD91EA4C
:1005B000030F1EBF0021002030BD5FEA545C05D14F
:1005C0004000494128BF41F0004130BD14F580048E
:1005D0003CBF01F5801130BD01F0004545F0FE4102
:1005E00041F470014FF0000030BD7FEA645C1ABF37
:1005F000194610467FEA655C1CBF0B46024650EA6E
:10060000013406BF52EA033591EA030F41F4002199
:1006100030BD00BF90F0000F04BF0021704730B51F
:100620004FF4806404F132044FF000054FF00001F4
:1006300050E700BF90F0000F04BF0021704730B5B5
:100640004FF4806404F1320410F0004548BF40428A
:100650004FF000013EE700BF42004FEAE2014FEADF
:1006600031014FEA02701FBF12F07F4393F07F4FBA
:1006700081F06051704732F07F4208BF704793F0BD
:100680007F4F04BF41F40021704730B54FF46074D0
:1006900001F0004521F000411CE700BF50EA0102D3
:1006A00008BF704730B54FF000050AE050EA01027C
:1006B00008BF704730B511F0004502D5404261EBEC
:1006C00041014FF4806404F132045FEA915C3FF42D
:1006D000D8AE4FF003025FEADC0C18BF03325FEACA
:1006E000DC0C18BF033202EBDC02C2F1200300FA7B
:1006F00003FC20FA02F001FA03FE40EA0E0021FAA0
:1007000002F11444BDE600BF53B94AB9002908BF3D
:1007100000281CBF4FF0FF314FF0FF3000F074B9DC
:10072000ADF1080C6DE904CE00F006F8DDF804E048
:10073000DDE9022304B070472DE9F047089D044627
:100740008E46002B4DD18A42944669D9B2FA82F284
:1007500052B101FA02F3C2F1200120FA01F10CFAC0
:1007600002FC41EA030E94404FEA1C48210CBEFBF8
:10077000F8F61FFA8CF708FB16E341EA034306FB81
:1007800007F199420AD91CEB030306F1FF3080F010
:100790001F81994240F21C81023E63445B1AA4B25D
:1007A000B3FBF8F008FB103344EA034400FB07F7FF
:1007B000A7420AD91CEB040400F1FF3380F00A8140
:1007C000A74240F207816444023840EA0640E41B35
:1007D00000261DB1D4400023C5E900433146BDE8E1
:1007E000F0878B4209D9002D00F0EF800026C5E983
:1007F000000130463146BDE8F087B3FA83F6002E9B
:100800004AD18B4202D3824200F2F980841A61EB12
:10081000030301209E46002DE0D0C5E9004EDDE730
:1008200002B9FFDEB2FA82F2002A40F09280A1EB18
:100830000C014FEA1C471FFA8CFE0126200CB1FB6D
:10084000F7F307FB131140EA01410EFB03F0884266
:1008500008D91CEB010103F1FF3802D2884200F2F3
:10086000CB804346091AA4B2B1FBF7F007FB101185
:1008700044EA01440EFB00FEA64508D91CEB040423
:1008800000F1FF3102D2A64500F2BB800846A4EB7E
:100890000E0440EA03409CE7C6F12007B34022FA69
:1008A00007FC4CEA030C20FA07F401FA06F31C4398
:1008B000F9404FEA1C4900FA06F3B1FBF9F8200CA5
:1008C0001FFA8CFE09FB181140EA014108FB0EF0EB
:1008D000884202FA06F20BD91CEB010108F1FF3A3B
:1008E00080F08880884240F28580A8F10208614447
:1008F000091AA4B2B1FBF9F009FB101144EA014155
:1009000000FB0EFE8E4508D91CEB010100F1FF34FF
:100910006CD28E456AD90238614440EA0840A0FB97
:100920000294A1EB0E01A142C846A64656D353D06D
:100930005DB1B3EB080261EB0E0101FA07F722FA91
:1009400006F3F1401F43C5E9007100263146BDE8BA
:10095000F087C2F12003D8400CFA02FC21FA03F31D
:10096000914001434FEA1C471FFA8CFEB3FBF7F09E
:1009700007FB10360B0C43EA064300FB0EF69E42C3
:1009800004FA02F408D91CEB030300F1FF382FD25C
:100990009E422DD9023863449B1B89B2B3FBF7F604
:1009A00007FB163341EA034106FB0EF38B4208D9DD
:1009B0001CEB010106F1FF3816D28B4214D9023E1E
:1009C0006144C91A46EA004638E72E46284605E73C
:1009D0000646E3E61846F8E64B45A9D2B9EB02080D
:1009E00064EB0C0E0138A3E74646EAE7204694E79D
:1009F0004046D1E7D0467BE7023B614432E73046D0
:100A000009E76444023842E7704700BFFEE700BFD1
:100A10000B480C4A904203D0121A0B4914F01EFFE7
:100A20000A480B4A904203D0121A002114F03EFFEC
:100A300007F00AF914F0DEFE02F0A2FAFEE700BFAA
:100A400000000024F0030024B07E0108F00300241D
:100A5000A83A0024704700BF704700BF704700BF2E
:100A6000704700BF704700BF49424FF480621430A6
:100A7000C9B214F01BBF00BF704700BF40207047D1
:100A80008020704710B5044640F2144114F01BF862
:100A9000204610BD10B50446806918B1216A091AB4
:100AA00014F011F8204610BD2DE9F041B02482B0B9
:100AB00000F1080600F1100500F11408002728468F
:100AC0008DF807400134394604F008FE6423012202
:100AD0000DF107013046E4B206F034FD39462846F0
:100AE0008DF8077004F0FAFD012264230DF107016F
:100AF000304606F027FD1023394628468DF807308A
:100B000004F0ECFD642301220DF10701304606F0EC
:100B100019FD0121284604F0E1FD802241466423AD
:100B20003046904406F00EFDB82CC7D102B0BDE8A7
:100B3000F08100BF2DE9F04F85B0A1F1200504AC94
:100B40009DF83870009104E90C00EBB25E2B00F2C6
:100B50009580036880465D4ADB689DF808409342B3
:100B60009DF8096040F094808020B8F80430234458
:100B7000834200F38380D8F80030554A9B68934243
:100B800040F088804020B8F80620931901928342F3
:100B900074DC002E00F0898006FB05F56FF0004044
:100BA000039B964628442E44B8F804A003EB40006B
:100BB000023B03EB460B30F8026FBCB30EF00703A9
:100BC0004FF0010C4FEADE0251460CFA03FC0AF129
:100BD00014034FFA8CFC03EBC21200236FEA0C09DA
:100BE00042440EE07F2907D8BEF13F0F04D81578A4
:100BF0009FB14CEA050515700133013201319C4269
:100C000014D006FA03F52D04ECD47F29F4D8BEF1F4
:100C10003F0FF1D81578002FEBD0013309EA050515
:100C2000013201319C4202F8015CEAD158450EF1D3
:100C3000010EC0D1D8F8003054442449DA68A4B277
:100C40008A422DD1802084421CD29B68204AA8F879
:100C50000440934221D14020019B834207D3D8F81E
:100C600000301B4A9B68934229D13F230193DDE961
:100C70000003A8F8063005B0BDE8F08F002005B0ED
:100C8000BDE8F08FDA6811498A4211D17F24DCE790
:100C900098476AE74046984775E740469847DBE73C
:100CA00040469047D8F80030CDE7B8F804A0C1E737
:100CB000404690470138D8F8003084B2C5E7404636
:100CC0009847013883B20193D1E700BF810A000839
:100CD0007D0A00087F291ED83F2A1CD86BB1D30893
:100CE0004FF0010C02F0070201EBC3130CFA02F201
:100CF000C1180B7D1A430A757047D3084FF0010CD9
:100D000002F0070201EBC3130CFA02FCC1180A7DC2
:100D100022EA0C020A7570472DE9F04F83B05C1A85
:100D20000C9E002C9DF83490A6EB0208B8BF6442DC
:100D3000B8F1000FB8BFC8F100088B428CBF4FF06C
:100D4000010A4FF0FF3A9642A4EB080C51D84FF03D
:100D5000FF357F2B019512D83F2E10D8F50806F0ED
:100D6000070E012703EBC5150544B9F1000F47D065
:100D700007FA0EF795F814E047EA0E072F7596422A
:100D800001D18B4229D0C8F100077F2914D83F2A0E
:100D900012D8D50802F0070B4FF0010E01EBC51574
:100DA0000544B9F1000F1BD00EFA0BFE95F814B0F4
:100DB0004EEA0B0E85F814E0B7EB4C0F4FEA4C05EA
:100DC00002DAACEB080C5144AC4202DD019DA444B4
:100DD0002A449942D9D19642D7D103B0BDE8F08FC9
:100DE0000EFA0BFB95F814E02EEA0B0E85F814E0D2
:100DF000E2E701257F2B0195C5D83F2EAED9C2E78A
:100E000007FA0EFE2F7D964227EA0E072F75B8D0FF
:100E1000B9E700BF000000002DE9F04F2DED068B73
:100E200083B01F4680460D469DF85030164601930C
:100E3000139B002BC0F22182129A134406EE103A43
:100E4000DDED127AB8EEC66B9FEDCD4BB8EEE77BC9
:100E50009FEDCD5B27EE047B26EE046B87EE050B42
:100E600086EE05ABF7EEC08BB0EE680A14F048F8DA
:100E700007EE907AB7EECAABF8EE679AB0EE408A0A
:100E8000B0EE680A14F094FB60EE698AB0EE4A0A8C
:100E900014F036F8B0EE409AB0EE4A0A14F088FB2F
:100EA00020EE690A29EE888A29EE899A70EE687A1E
:100EB000F0EE006A39EE487A67EEA77AE7EE077A35
:100EC000F4EEE67AF1EE10FA06D5139BB42B40F35C
:100ED00096804FF0010901E04FF0000901247842AB
:100EE0004FF0000C0095E31B214627462246A34005
:100EF000B9F1000F6AD1424206EE90CACCF100016E
:100F000007EE102AB8EEE66A07EE901A06EE900A8F
:100F1000B8EEC77A139A66EE084AF8EEE77AB42A72
:100F200027EE284AF8EEE66A67EE885A74EEC43A6D
:100F300026EEA85A26EE096A66EE806A67EE897A7E
:100F400027EE007AF5EEC03A40F3F280F1EE10FAA7
:100F500000F17F8176EE473A74EEC54AF5EEC03A6D
:100F6000F1EE10FAF5EEC04ACCBF01220022F1EEFC
:100F700010FA00F1778136EE666A35EEC55AB5EEA5
:100F8000C06AF1EE10FAB5EEC05ACCBF01210021C3
:100F9000F1EE10FA00F16F8177EEE66AF5EEC06AC5
:100FA000F1EE10FACCBF0127002775EEC45AF5EE1A
:100FB000C05AF1EE10FA00F1478177EEC77AF5EEEC
:100FC000C07AF1EE10FACCBF01240024002A40F0D0
:100FD0008A80002964D1BFB9C4BB9C4558DB0CF1A1
:100FE000010C03EB4C0E1CEB000F0EF1010E00F098
:100FF000C08098424FDB734600287FF779AF03B07B
:10100000BDEC068BBDE8F08F009DA6EB0C0E00EB4F
:10101000050ABAF17F0FDFD8BEF13F0FDCD84FEAE7
:10102000DE0B019D0AEBCB1A002D00F0B1800EF013
:10103000070BC2444FF0010E0EFA0BFE9AF814B0E3
:101040004EEA0B0E8AF814E0002CC6D0009DA6EBE9
:101050000C0EA5EB000ABAF17F0FBED8BEF13F0F10
:10106000BBD84FEADE0B019D0AEBCB1A002D00F036
:10107000AE800EF0070BC2444FF0010E9C450EFAF5
:101080000BFE9AF814B04EEA0B0E8AF814E0A6DABA
:1010900098429E46AFDA01300EEB40030133ABE7D6
:1010A000009D0CEB060E00EB050ABAF17F0F92D8FB
:1010B000BEF13F0F8FD84FEADE0B019D0AEBCB1A32
:1010C000002D73D00EF0070BC2444FF0010E0EFA44
:1010D0000BFE9AF814B04EEA0B0E8AF814E0002FBB
:1010E0003FF47AAF90E7009D0CEB060EA5EB000AEB
:1010F000BAF17F0F3FF66DAFBEF13F0F3FF669AF1C
:101100004FEADE0B019D0AEBCB1A002D6DD00EF0DD
:10111000070BC2444FF0010E0EFA0BFE9AF814B002
:101120004EEA0B0E8AF814E000293FF454AFB7E7FB
:10113000F1EE10FA7ED44A4674EEC54AF5EEC04A86
:10114000F1EE10FA6CD4002135EEC55AB5EEC05A56
:10115000F1EE10FA5AD4002775EEC45AF5EEC05AD3
:10116000F1EE10FA3FF529AF0024002A3FF431AF29
:10117000B9E798428FDB00233BE700BFAFF3008065
:101180007A008BFCFA2109400000000000806640D4
:10119000C2444FF0010B0EF0070E0BFA0EFE9AF848
:1011A00014B02BEA0E0E8AF814E015E7C2444FF093
:1011B000010B0EF0070E0BFA0EFE9AF814B02BEA94
:1011C0000E0E8AF814E0002F3FF406AF1CE7C2446D
:1011D0004FF0010B0EF0070E0BFA0EFE9AF814B04A
:1011E0002BEA0E0E8AF814E0F7E6C2444FF0010B2A
:1011F0000EF0070E0BFA0EFE9AF814B02BEA0E0E44
:101200008AF814E000293FF4E6AE49E777EEE66A93
:10121000F5EEC06AF1EE10FACCBF012700279BE77C
:1012200036EE666AB5EEC06AF1EE10FACCBF012167
:10123000002189E776EE473AF5EEC03AF1EE10FA72
:10124000CCBF0122002277E70124002A3FF4C1AE7F
:1012500049E774EEC54A0122F5EEC04AF1EE10FAF4
:101260007FF589AE35EEC55A0121B5EEC05AF1EED3
:1012700010FA7FF591AE012797E6DDE912231344BA
:1012800006EE102A1293139B5B421393D8E500BF1E
:101290002DE9F04F89B008AC9DF84870019104E940
:1012A0000C000B78002B00F0AB801A469DF81880DC
:1012B0009DF819300646454690460393079B0593D3
:1012C000A8F12004E3B25E2B00F29E8033685E4AF0
:1012D000DB68934240F09B808020B3882B4483429C
:1012E00000F392803368594A9B68934240F09280A1
:1012F0004020F188039A02918B18834200F3848086
:10130000002A00F0918002FB04F46FF00049059B75
:10131000A1441444B6F804B003EB4909023BCDF8EC
:10132000108003EB44030C469A4639F802CFA5B36C
:1013300004F007034FF0010EE20859460EFA03FECF
:101340000BF114034FFA8EFE03EBC21200236FEA77
:101350000E0832440DE07F2906D83F2C04D81078BF
:1013600097B14EEA00001070013301320131AB42F7
:1013700013D00CFA03F00004EDD47F29F4D83F2CED
:10138000F2D81078002FECD0013308EA00000132C7
:101390000131AB4202F8010CEBD1D14504F101045B
:1013A000C3D1DDF8108032680BEB05042649D36801
:1013B000A4B28B4234D18020844204D3D368224922
:1013C0008B423AD17F249368204AB480934224D13F
:1013D0004020029B834206D333681C4A9B68934299
:1013E00025D13F230293029BF380019B187840454F
:1013F00007D113F8018F0193B8F1000F7FF460AFAC
:10140000002009B0BDE8F08F4FF00008EDE730464E
:10141000984762E7304698476BE730469847D8E7E9
:10142000304698473268C7E7B6F804B0BBE73046A5
:101430009847013883B20293D5E730469847013880
:10144000326884B2BFE700BF810A00087D0A000845
:101450002DE9F04F964683B006461F461EF8014B15
:1014600091460D460C9B0D989DF83880002C00F09D
:1014700010814FF0000C1EF8014B0CF1010C002CF8
:10148000F9D11FFA8CFC3C787A7814FB0CFC11B271
:101490000FFA8CFC2CEAEC7C082800F2E580DFE8EF
:1014A00000F04A5DBAD174849DA405009A88B3F80F
:1014B00000A09244B3F90620AAEB0C0A002A1FFAF6
:1014C0008AFA49DB5C88F18004EB6204A6F804C068
:1014D000A6F800A0A4EB51018CB274802B68DFF851
:1014E000D4B1DA685A454CD18020504505D8DA6825
:1014F0005A4540F0D5804FF07F0A9B68A5F804A0BC
:10150000DFF8B4A1534540F0C1804020A04205D887
:101510002B689B68534540F0BE803F24EC804946D1
:10152000CDF80080284697E80C00FFF7B1FE304662
:1015300003B0BDE8F08FB3F90420B3F800A0002A8F
:10154000B8BF01320AEB620AB3F90620AAEB6C0AB3
:10155000002A1FFA8AFAB5DA0132B3E7B3F900A01C
:10156000B3F902402B68DFF84CB1DA68A6F800A0A6
:101570001FFA8AFA5A457480A6F804C0A4B2F18012
:10158000B2D0284690472B68AFE75C88D888B3F97B
:1015900000A00444A6F804C0A6F800A01FFA8AFA26
:1015A000A21AF18094B2748098E7B3F90400B3F8FA
:1015B00000A00028B8BF01300AEB600AAAEB6C0A51
:1015C0005C881FFA8AFADB88A6F804C01C44F18004
:1015D000A6F800A0A21A94B274807FE7B3F800A026
:1015E00098888244AAEB0C0AEAE7B3F906205C88E3
:1015F000002AB3F900A0F180B8BF0132A6F800A01C
:10160000A6F804C01FFA8AFA04EB6204A4EB5101A5
:101610008CB2748062E7B3F90420B3F800A0002A0A
:10162000B3F90240A6F804C0B8BF01327480F1805B
:10163000A4B20AEB620AAAEB6C0C1FFA8CFAA6F8A9
:1016400000A04BE7B3F800A09A88B3F90240924497
:10165000A6F804C07480A4B2AAEB0C0CF1801FFAA7
:101660008CFAA6F800A039E72B680024DFF844B014
:10167000DA6834805A457480B480F48017D19B684E
:10168000DFF834A0AC8053453FF448AF2846984774
:101690003CE7A446F7E628469847013884B23DE780
:1016A0002846904701382B681FFA80FA25E7A246A2
:1016B00067E700BF810A00087D0A00082DE9F04FA6
:1016C00087B09DF84850109C2E4601959DF84450D7
:1016D0009EB399422ED89946A24228D87F29164611
:1016E00094BF0023012308E09CF814804EEA080E02
:1016F0008CF814E00136B44219D33F2EFAD8002BEF
:10170000F8D14FEAD60C06F0070E4FF0010801EBB6
:10171000CC1C08FA0EFE8444002DE5D19CF814B0D0
:1017200001362BEA0E0AB4428CF814A0E5D201313E
:101730008945D1D207B0BDE8F08FA3EB0108B8F11D
:10174000000FB8BFC8F100089942C0F04E817F2B4E
:101750004FF0FF3A94BF002601263F2A009694BF1F
:10176000002701270297A6B99FB9D60802F0070CF7
:10177000012703EBC6160644002D00F0948107FAFA
:101780000CF796F814C047EA0C0737750026029646
:101790000096994200F09781464694468E46BEF1E7
:1017A0007F0F16D8BCF13F0F13D84FEADC070CF0BF
:1017B000070B4FF001090EEBC7170744002D00F08F
:1017C000398109FA0BF997F814B049EA0B0987F83F
:1017D0001490770018BFD644B84502DD46440CF19A
:1017E000FF3C7345DBD16245D9D100260496A4EBBA
:1017F0000209009FB9F1000FB8BFC9F100093F2CE1
:1018000094BF00260126A242C9F100080396C0F049
:101810002381002F40F05081002E40F04D814FF089
:10182000FF360096E60803EBC6160644002D00F0CE
:101830001E814FF0010C04F007070CFA07F796F829
:1018400014C047EA0C07377500260396A24200F041
:101850003D81C44616461F4605927F2F15D83F2E60
:1018600013D84FEAD60E06F0070B4FF0010A07EB2C
:10187000CE1E8644002D00F0E6800AFA0BFA9EF890
:1018800014B04AEA0B0A8EF814A0B8EB4C0F4FEADA
:101890004C0E02DAACEB090C013FBEF1000F01D097
:1018A000009A1644BB42D8D1B442D6D1059AA1EBD6
:1018B000030EBEF1000FB8BFCEF1000E7F2994BF1A
:1018C0004FF0000A4FF0010A99428CBF4FF0010916
:1018D0004FF0FF39BAF1000F13D1039E8EB9E6081D
:1018E00001EBC6160644002D00F0D3804FF0010C2A
:1018F00004F007070CFA07F796F814C047EA0C073C
:101900003775049E26BB774626467F2B14D83F2E7C
:1019100012D84FEAD60C06F0070B4FF0010803EB84
:10192000CC1C8444002D73D008FA0BF89CF814B03A
:1019300048EA0B088CF814805FEA470C18BF4B4448
:10194000E64501DD7744013E9942DED1B442DCD167
:10195000A2EB040EBEF1000FB8BFCEF1000EA24202
:101960008CBF4FF001084FF0FF38CEF1000CBAF1F8
:10197000000F0ED1029B63B9D30802F007070126BE
:1019800001EBC3130344002D7CD0BE401F7D3E43BA
:101990001E75019B002B7FF4CDAE66460B467F2B58
:1019A00012D83F2C10D8E70804F0070A4FF00109BD
:1019B00003EBC7170744A5B309FA0AF997F814A06F
:1019C00049EA0A0987F81490BCEB460F4FEA46072C
:1019D00002DAA6EB0E06013B07B144449942DED180
:1019E000A242DCD107B0BDE8F08F3F2A4FF0010AD8
:1019F00094BF002601267F2B029694BF0027012763
:101A00000097002E7FF4C8AE002F3FF4AEAEC3E6C1
:101A100008FA0BFB9CF8148028EA0B088CF8148059
:101A20008AE709FA0AFA97F8149029EA0A0987F866
:101A30001490C9E709FA0BFB97F8149029EA0B09EF
:101A400087F81490C5E60AFA0BFB9EF814A02AEA60
:101A50000B0A8EF814A018E797BB8EBB01260096E0
:101A6000E60803EBC6160644002D7FF4E2AE01271C
:101A700004F0070C039507FA0CFC377D27EA0C07E6
:101A80003775E3E606FA07F71E7D26EA07061E7598
:101A90007FE7012704F0070C07FA0CFC377D27EAE3
:101AA0000C0737752DE707FA0CFC377D029527EAFE
:101AB0000C07009537756CE64FF0FF360096C5E6CB
:101AC00001260096C5E60126049690E601260196B9
:101AD000EDE600BF000000002DE9F0419A489B4F61
:101AE0009B4E9C4D9C4C2DED048B82B0F2EE089ADF
:101AF00001F0A6FC944801F0AFFC984802F0EAFD22
:101B00009FED970A9748B0EE699A12F0B3FD002155
:101B10008D48B2EE048A01F0A1FCDFED938A934B6D
:101B20000121DFED937A8848A0EE279ADFED917AC4
:101B300089FE299A89FE679A83ED009A01F08EFC4E
:101B4000B0EE687A03218048A0EE087A87FE287AF2
:101B500087FE488A01F082FC78EE097AB0EE687A56
:101B6000DFED856ADFED850A9FED858AA0EE267A96
:101B7000844B87FE287A87FE667A77EE877A83ED34
:101B8000007AC7FEA87AC7FEC87A77EEE00A9FED12
:101B90007E8AB0EE000AC0EEA90A13F075FB02219E
:101BA000694820EE088A01F059FCB7EEC05A384661
:101BB000B7EEC87A87ED028AB0EE480A9FED604B17
:101BC000B0EE479B27EE044BA4EE059BA4EE457BAD
:101BD000B7EEC99BB7EEC78B12F06AFFF0EE407A02
:101BE0003046B0EE490A86ED029AC7ED077A12F048
:101BF0005FFFF0EE407A2846B0EE480A85ED028A93
:101C0000C6ED077A12F054FF85ED070A01A8D4E962
:101C10000667BD1BAD1007EE905A05F1FF38F8EED0
:101C2000677A67EEA88AB0EE680A13F0FBFADDED7A
:101C3000017AFCEEE77A17EE901A41454DD357ED45
:101C4000017AB0EE680A01A8C4ED037A13F0EAFA4B
:101C5000DDED017AFCEEE77A17EE901A414550D39C
:101C600057ED017A3848C4ED047A90F8C63100F592
:101C7000D87063BB03F03CFC444B187078B1D4EDD2
:101C8000057A00230022F5EEC07A2370F1EE10FAF7
:101C900050DD94ED037A67EE277AC4ED027A2F4B7C
:101CA0001A793AB15A6A002A3FDB03D038490A68E8
:101CB000013A0A601A7B2AB19B7C7F2B02D1344BFC
:101CC00000221A6002B0BDEC048BBDE8F08103F085
:101CD0000FFC80F00100C0B2CEE78D422CD906EB9C
:101CE000810301318D42D3ED006A25D9B7EE007A28
:101CF000D3ED017A60EE277A37EE400AE6EE807A7D
:101D00009FE7A94218D206EB81060131A942D6ED20
:101D1000006A11D2B7EE007AD6ED017A60EE277A2A
:101D200037EE400AE6EE807A9CE719490A680132EC
:101D30000A60BFE7A260B2E72A46164812F0DFFE4B
:101D40009A9999999999A93FB809002430090024D2
:101D50005C09002488090024BC080024940800249D
:101D600000006144E0080024000000000C0400248E
:101D7000000090420000A8420000704200008A4229
:101D80000000FE42E00B00240000DC432C0900248C
:101D9000B4090024D46101082DE9F04116460F462C
:101DA0002DED028BFFF798FE002E5FD00024DFF8A8
:101DB000CC80304D0CE0002842D095ED050A7B68C0
:101DC000013428EE008A1344A64283ED008A4DD0E8
:101DD000294812F0B3FC2948B0EE408A12F0E6FB25
:101DE0002878A2003968D8F83030012801EB840C3B
:101DF000CCF8003008D00228DDD1DFED217AB0EE3A
:101E0000670AC5ED057ADAE7D5ED027AB7EE000A82
:101E1000D5ED016A022395ED047A002177EEA67ACA
:101E2000C7EE876AC5ED027AF4EEC77AF1EE10FAD2
:101E300030EE660A85ED050AC1DBA9602B70BEE7AE
:101E4000D5ED027A0123D5ED016A002195ED037AE3
:101E500077EEA67A87EE870AC5ED027AF4EEC77AA6
:101E6000F1EE10FA85ED050AA9DBE6E7BDEC028B81
:101E7000BDE8F081BC08002430090024E0080024FB
:101E8000000000002DE9F04FDFF860B24FF48062EF
:101E900000210BF114002DED028BADB013F006FD07
:101EA0008B4BCBF8043005F0E1FC8A4902461CA8B4
:101EB00013F0FEFD884A53781578049352689DF814
:101EC00070300592002B6ED01CAA0292203BDAB231
:101ED0005E2A68D8BBF8048008EB050EBEF1800FBF
:101EE00061DCBBF80620049903920A44402A5ADCBC
:101EF000002943D0049A6FF0004C039C02FB03F3CB
:101F00009C441344059AA2F1020A02EB4C0C0AEB22
:101F1000430A3CF8026F6DB304F007030127E2089F
:101F200041469F4008F114037FB203EBC212002325
:101F30006FEA07095A440BE07F2904D83F2C02D8E6
:101F4000107838431070013301320131AB4211D0A7
:101F500006FA03F00004EFD47F29F4D83F2CF2D81E
:101F6000107801330132013109EA0000AB4202F876
:101F7000010CEDD1D44504F10104CAD1039A1FFA32
:101F80008EFE02993F2A11F8013F28BF3F22BEF181
:101F90007F0F029128BF4FF07F0EABF80620ABF801
:101FA00004E0002B92D14D4B4FF00F0C4C4A1D78A2
:101FB000CBF804205A785B6804920593494B02934E
:101FC00043230CEB050ABAF1800F66DCBBF8062050
:101FD000049903920A44402A5FDC002945D0049A00
:101FE000203B6FF0004E039C02FB03F39E4413441E
:101FF000059AA2F1020902EB4E0E09EB43093EF8E5
:10200000026F75B304F0070301270CF11402614657
:102010009F40E30892B27FB202EBC31200236FEA43
:1020200007085A440BE07F2904D83F2C02D81078C7
:10203000384310700133013201319D4211D006FA4C
:1020400003F00004EFD47F29F4D83F2CF2D81078A5
:1020500001330132013108EA00009D4202F8010C0F
:10206000EDD1F14504F10104C9D1039A1FFA8AFCAC
:1020700002993F2A11F8013F28BF3F22BCF17F0F90
:10208000029128BF4FF07F0CABF80620ABF804C0DC
:102090001BB1A3F120025E2A93D9134BD3ED007A32
:1020A000FCEEE77A17EE904A092C40F29F84632CED
:1020B00040F2BB83B4F57A7FC0F0898442F20F739B
:1020C0009C4240F2818417EE903A012119E000BF52
:1020D0000F0008002C6201088C01002484010024F8
:1020E0000F00100020620108E00B002448040024C7
:1020F000B24240F226848242C0F01F84BA4240F2CB
:1021000033847E481A467E4D8C46A0FB03037D4EE9
:10211000AA427D487D4F4FEA533301F10401E7D8CD
:1021200016A808EE900A18AB00220393169312F03B
:1021300006FE1798169F0138754B3844754A64217E
:10214000254642F20F76A2FB04C20238B5424FEA9E
:10215000521201FB1241144603EB410213F8111015
:10216000527841708270E9D8B5F57A7F80F0698342
:1021700030343C700523002218EE900A009311467B
:10218000654B12F033FE0CAB054604460A9355F836
:10219000083BAB4200F002840A9383680C936368A7
:1021A0000B9300232560237216986360039B98426B
:1021B00003D01899013112F086FC0A9B1A46079346
:1021C000564BCBF80430564B92F800A01D785A7845
:1021D0005B6806920893BAF1000F74D0079B0293D4
:1021E000AAF12003DAB25E2A00F26283BBF804E0AF
:1021F0000EEB0502802A059200F35A83BBF80620F5
:10220000069904920A44402A00F35283002943D0DD
:10221000069A6FF0004C049C02FB03F39C441344A9
:10222000089AA2F1020902EB4C0C09EB43093CF8B5
:10223000026F6DB304F007030127E20871469F4067
:102240000EF114037FB203EBC21200236FEA0708FA
:102250005A440BE07F2904D83F2C02D81078384329
:1022600010700133013201319D4211D006FA03F0A2
:102270000004EFD47F29F4D83F2CF2D81078013332
:102280000132013108EA00009D4202F8010CEDD153
:10229000E14504F10104CAD1049ABDF814303F2A83
:1022A00028BF3F227F2B28BF7F23ABF80620ABF847
:1022B0000430029A1378534505D112F801AF029207
:1022C000BAF1000F8CD1174BD3ED007AFCEEE77A10
:1022D00017EE904A092C40F27D83632C40F2B982BC
:1022E000B4F57A7FC0F0938342F20F739C4240F2C0
:1022F000698317EE903A01211FE000BF5917B7D14B
:102300009F8601003F420F0080969800FFE0F50590
:10231000846201081F85EB51306201080F002E0016
:102320008C0100240C040024B24240F21483824247
:10233000C0F00E83BA4240F2118389481A46894D93
:102340008C46A0FB0303884EAA428848884F4FEA78
:10235000533301F10401E7D812AB10A8002208930F
:1023600008EE100A109312F0EAFC1199109F01393F
:10237000804B3944804A64250239A2FB040220467E
:10238000520905FB1245144642F20F7203EB450653
:1023900013F8155090424D7075788D70EAD8B0F5ED
:1023A0007A7F80F0628230343C700022052318EE80
:1023B000100A00931146714B12F018FD039B05465D
:1023C0000446169355F8083BAB4200F0D9821693A9
:1023D000836818936368039A179300232560237218
:1023E0006360169B0A98934200F093820CAA0A93AA
:1023F000179B90420B9300F05E82189A0C9B0C92F4
:10240000002800F05A821893169000231793037047
:102410001698039B984203D01899013112F053FB90
:102420001098089B984203D01299013112F04BFB8F
:10243000534BCBF80430079B93F800A0514B5A78CC
:102440001D785B6806920993BAF1000F74D0079B60
:102450000293AAF12003DAB25E2A00F23782BBF8B7
:1024600004E00EEB0502802A059200F32F82BBF8F0
:102470000620069904920A44402A00F32782002984
:1024800043D0069A6FF0004C049C02FB03F39C447B
:102490001344099AA2F1020902EB4C0C09EB43091F
:1024A0003CF8026F6DB304F007030127E2087146A0
:1024B0009F400EF114037FB203EBC21200236FEAB8
:1024C00007085A440BE07F2904D83F2C02D8107823
:1024D000384310700133013201319D4211D006FAA8
:1024E00003F00004EFD47F29F4D83F2CF2D8107801
:1024F00001330132013108EA00009D4202F8010C6B
:10250000EDD1E14504F10104CAD1049ABDF81430BB
:102510003F2A28BF3F227F2B28BF7F23ABF806200E
:10252000ABF80430029A1378534505D112F801AF85
:102530000292BAF1000F8CD1134B1C68092C40F2A7
:102540006882632C40F2C581B4F57A7FC0F05B826B
:1025500042F20F739C4240F25882234601211EE052
:102560005917B7D19F8601003F420F00809698000F
:10257000FFE0F505846201081F85EB513862010810
:102580000F0036008C010024B4090024B24240F24E
:10259000D1818242C0F0CB81BA4240F2E281B74899
:1025A0001A46B74D8C46A0FB0303B64EAA42B64866
:1025B000B64F4FEA533301F10401E7D8089B0022DC
:1025C00018EE100A109312F0BAFB1199109F0139FE
:1025D000AF4B3944AF4A64250239A2FB04022046BE
:1025E000520905FB1245144642F20F7203EB4506F1
:1025F00013F8155090424D7075788D70EAD8B0F58B
:102600007A7F80F0708130343C700022052318EE10
:10261000100A00931146A04B12F0E8FB039B0546FD
:102620000446169355F8083BAB4200F0B081169370
:10263000836818936368039A1793002325602372B5
:102640006360169B0A98934200F055810CAA0A9386
:10265000179B90420B9300F08B81189A0C9B0C9265
:10266000002800F0878118931690002317930370B9
:102670001698039B984203D01899013112F023FA5F
:102680001098089B984203D01299013112F01BFA5E
:10269000824BCBF80430079B93F800A0804B5A780C
:1026A0001C785B6804920693BAF1000F77D0DDF8CE
:1026B0001C90AAF12003DAB25E2A00F20481BBF872
:1026C00004E00EEB0402802A039200F3FC80BBF8C6
:1026D0000620049902920A44402A00F3F48000295B
:1026E00047D0049A6FF0004CCDF814A002FB03F31E
:1026F000029D9C441344069A02EB4C0C023A02EBF6
:1027000043039A463CF8026F6CB305F007030127B8
:10271000EA0871469F400EF114037FB203EBC21228
:1027200000236FEA07085A440BE07F2904D83F2DA5
:1027300002D8107838431070013301320131A342BE
:1027400011D006FA03F00004EFD47F29F4D83F2D0E
:10275000F2D8107801330132013108EA0000A342B7
:1027600002F8010CEDD1E24505F10105CAD1DDF811
:1027700014A0029ABDF80C303F2A28BF3F227F2BBD
:1027800028BF7F23ABF80620ABF8043099F800305F
:10279000534504D119F801AFBAF1000F89D1414E68
:1027A000B02418EE907A00253F488DF85840013447
:1027B000294602F093FF6423012239463B48E4B2E4
:1027C00004F0C0FE294638488DF8585002F086FFC4
:1027D000012264233946354804F0B4FE102329460B
:1027E00031488DF8583002F079FF642301223946D0
:1027F0002E4804F0A7FE01212B4802F06FFF802233
:10280000314664232948164404F09CFEB82CCAD1F2
:102810000A980CAB984203D00C99013112F053F98D
:102820002DB0BDEC028BBDE8F08F18AB16A80022CE
:102830000221039308EE900A169312F080FA169F75
:10284000134B03EB440213F814303B7053787B7046
:1028500090E412AB10A800220221089308EE100A9F
:10286000109312F06CFA109F094B03EB440213F81B
:1028700014303B7053787B7097E500BF5917B7D180
:102880009F8601003F420F0080969800FFE0F5050B
:10289000846201081F85EB51406201084000360048
:1028A0008C0100245C0400245804002450040024FB
:1028B0004FF0000AFDE4189B0C93039B169318AB92
:1028C00018460393A1E54FF0000A5FE74FF0000AB6
:1028D00028E6089B0022022118EE100A109312F03D
:1028E0002EFA109F504B03EB440213F814303B7048
:1028F00053787B7089E6179A32B1012A5CD003992C
:1029000012F0ACFF179A0A9800230B928354169882
:10291000ABE6179A32B1012A48D0039912F09EFF14
:10292000179A0A9800230B92835416986DE50CF1C0
:10293000060143E60CF1050140E60CF10601FFF744
:10294000EFBB16A80CF1050108EE900AFFF7EBBBF0
:102950000CF1060100E50CF10501FDE40CF10701A5
:10296000FAE40CF1070129E60CF10701FFF7D8BBE7
:10297000189B0C93039B169318AB1846039374E6AD
:10298000039E80686968AA68EB680FC622E5039E0B
:1029900080686968AA68EB680FC64BE60CAE806871
:1029A0006968AA68EB680FC6FFF7F9BB9DF860304D
:1029B0000370179A0A98B5E79DF860300370179A6C
:1029C0000A98A1E70421C7E40421FFF7A9BB03216A
:1029D000FFF7A6BB12AB10A80022012108EE100AD7
:1029E0000893109312F0ABF9109FDCE418AB16A813
:1029F0000022012108EE900A0393169312F09FF92A
:102A0000169FFFF7B5BB0321D8E50421D6E50321C6
:102A1000A2E4089B0022012118EE100A109312F084
:102A20008EF9109FEFE500BF8462010884B02DE9A4
:102A3000F04182B00125064604460DF12408857256
:102A4000274688E80E00BDF84C3026F8083F30468F
:102A500002F05AFDBDF84E30A57127F8043F384604
:102A600002F052FD4146204604F0E4FC00213846C5
:102A700002F034FE0A2004F0FFFE2946384602F038
:102A80002DFE0A2004F0F8FEAE23304600218DF81A
:102A9000073002F023FE2A460DF107016423204689
:102AA00004F050FDD523304600218DF8073002F0A8
:102AB00015FE2A460DF107016423204604F042FD6D
:102AC0008023304600218DF8073002F007FE2A46A9
:102AD0000DF107016423204604F034FDA82330469D
:102AE00000218DF8073002F0F9FD2A460DF10701AB
:102AF0006423204604F026FD3F23304600218DF854
:102B0000073002F0EBFD2A460DF107016423204651
:102B100004F018FDDA23304600218DF8073002F06A
:102B2000DDFD2A460DF107016423204604F00AFD6D
:102B30001223304600218DF8073002F0CFFD2A46DF
:102B40000DF107016423204604F0FCFC0021D3238F
:102B500030460F468DF8073002F0C0FD2A46642348
:102B60000DF10701204604F0EDFC394630468DF8A2
:102B7000077002F0B3FD2A460DF1070164232046D9
:102B800004F0E0FC4023394630468DF8073002F06F
:102B9000A5FD2A460DF107016423204604F0D2FC6E
:102BA000A623394630468DF8073002F097FD2A46B5
:102BB0000DF107016423204604F0C4FCA423394628
:102BC00030468DF8073002F089FD2A460DF10701E5
:102BD0006423204604F0B6FC8D23394630468DF838
:102BE000073002F07BFD2A460DF1070164232046E1
:102BF00004F0A8FC1423394630468DF8073002F063
:102C00006DFD2A460DF107016423204604F09AFC6D
:102C1000A123394630468DF8073002F05FFD2A4681
:102C20000DF107016423204604F08CFCC8233946CB
:102C300030468DF8073002F051FD2A460DF10701AC
:102C40006423204604F07EFC8123394630468DF80B
:102C5000073002F043FD2A460DF1070164232046A8
:102C600004F070FC8F23394630468DF8073002F0AF
:102C700035FD2A460DF107016423204604F062FC6D
:102C8000D923394630468DF8073002F027FD2A4611
:102C90000DF107016423204604F054FC2523394636
:102CA00030468DF8073002F019FD2A460DF1070174
:102CB0006423204604F046FCDB23394630468DF879
:102CC000073002F00BFD2A460DF107016423204670
:102CD00004F038FC3423394630468DF8073002F0D2
:102CE000FDFC2A460DF107016423204604F02AFC6E
:102CF000AF23394630468DF8073002F0EFFC6423ED
:102D00002A460DF10701204604F01CFC02B0BDE884
:102D1000F04104B0704700BF10B5002394B0032108
:102D20000822062412480DF1300EEC46CDE90C3194
:102D3000A1F57401CDE91033CDE90E23A1F57D4154
:102D40000C4A0123CDE91240CDE909120B9309ACDD
:102D5000BEE80F00ACE80F009EE80F008CE80F0003
:102D6000054894E80E00FFF761FE14B010BD00BFE7
:102D7000020B020A02030BFF500400242DE9F04F5E
:102D8000714F4FF0020A4FF00008704D38464FF077
:102D90007C5B40F201196E4C6E4E2DED048B8DB0B4
:102DA000DFED6D8A00F0F2F9B7EE009AFFF7B4FF9D
:102DB00001230E210F228DF80430B0EE680A8DF841
:102DC000051001998DF80CA08DF808308DF80920B8
:102DD0008DF80DA06148DFED629A9FED628ADDE912
:102DE000022301F047FC384600F022FB5E4811F058
:102DF000B9FB07F1300E0DF1100CB3EE040ADFED54
:102E00005B0ABEE80F00ACE80F009EE80F008CE8FC
:102E10000F00524604A9564801F0ACFC07F1500ED1
:102E20000DF1100CF0EE490AB0EE690ABEE80F0091
:102E3000ACE80F009EE80F008CE80F00424604A9A2
:102E40004C4801F097FC07F1700E0DF1100CF0EEFC
:102E5000490AB0EE690ABEE80F00ACE80F009EE830
:102E60000F008CE80F0004A94246434801F082FCA1
:102E7000384600F0DDFAC9EE007A404B3846C3ED23
:102E8000017A00F0D5FAF0EE407A2846B0EE480A12
:102E900085ED028AC5F804B089EE277AC5ED047A7B
:102EA000C5F80CB0C5ED068A85ED057A11F000FE77
:102EB000384685ED070A85F80080A5F8289000F0CF
:102EC000B7FAF0EE407A2046B0EE480A84ED028A66
:102ED000C4F804B089EE277AC4ED047AC4F80CB0C3
:102EE000C4ED068A84ED057A11F0E2FD384684EDE2
:102EF000070A84F80080A4F8289000F099FAF0EE10
:102F0000407A3046B0EE480A86ED028AC6F804B030
:102F100089EE277AC6F80CB0C6ED047AC6ED068AAB
:102F200086ED057A11F0C4FDA6F8289086ED070A13
:102F300086F8008085F8008084F800800DB0BDEC34
:102F4000048BBDE8F08F00BFB809002430090024CD
:102F50005C09002488090024000000009408002473
:102F60009A99993E0000C842E008002400409C461F
:102F700010040024A80B00245C080024BC080024D2
:102F800008B5FFF7FBFE054800F056FA0449034870
:102F900000F04AFAFEF776FFFCE700BFB80900240C
:102FA000991D0008F8B538484FF60B73374E0024CA
:102FB000374D3246374904628462C0E96C34C0E957
:102FC0007234C0E90344C0E96E44C0E9744411F0AE
:102FD00075FD32463049314811F070FD32462946C0
:102FE0002F4811F06BFD324629462E4811F066FD40
:102FF000324629462C4811F061FD32462B492C48B7
:1030000011F05CFD32462B492B4811F057FD32463A
:1030100028492A4811F052FD32462649284811F025
:103020004DFD284D284B002202212C62EB601C2014
:103030002B61264B2970AA606A616B60C5E9064462
:1030400011F043FDDFF898C000F11C030746A861AA
:10305000C5E90733BCE80F0038607960BA60FB60EF
:10306000BCE80700386128467961BA6132461849E0
:1030700011F024FD1748184B32468460036017494D
:10308000BDE8F84011F01ABDB80900240000002482
:10309000610A00085D0A0008550A00089408002427
:1030A000300900245C09002488090024650A00080E
:1030B000E0080024590A000810040024A80B00248A
:1030C0005C080024BC080024CDCCCC3DC637BE37FC
:1030D000950A00084804002450620108790A000893
:1030E0005063010800294ED0274BF0B5D0E90024E9
:1030F000481E03F10C0E951C03F1100C4E00AC425F
:1031000018BF052802EB41058CBF01200020624555
:1031100038BFAE452CBF01270027384227D02644B0
:10312000644538BFB64522D39D890026D8894FEA29
:10313000510E65F30F06A44602EB8E0E65F31F4693
:10314000002560F30F0560F31F45104640F8046B3F
:1031500070454CF8045BF9D121F00100C90705D591
:10316000998922F81010DB8924F81030F0BD023A5A
:10317000023C023D998922F8021FAA42D98924F80B
:10318000021FF7D1F0BD7047E40B00242DE9F04396
:1031900040F20113964A012706462DED028BDDB061
:1031A000C0F8EC21ADF81C30002306978DF81E30D6
:1031B00004F000FD044604F061FB06A90546002862
:1031C00040F00081002C00F0FD8030468DF81E702C
:1031D00004F076FC072C0DF198080DD0854906F116
:1031E0000C00854B854ACDE92613012341462892E0
:1031F000ADF8A43002F060FE032201234FF0000975
:103200001CA904A806F11005CDF870904446CDF82D
:1032100010905CAFCDE9202300220123CDE92223C9
:10322000774B01221D9303F1007303F540731E9346
:103230004FF44173ADF87C300023CDE9242303F033
:10324000BBF901230CA905A80C930E931023CDF80C
:1032500014908DF840306B4BCDF83C900D9302F0FC
:10326000BDFB059906F1200000F012F94FF07E53E6
:103270003020049A0A9308A90B930323CDE908038D
:10328000284601F0F7F8284601F030F92846B0EE5C
:10329000408A01F027F9D0ED007A0DF1580CDFF8E3
:1032A00084E1F8EE677A6546BEE80F0088EE277A7B
:1032B000ACE80F009EE803008CE8030086ED7A7A04
:1032C00035F8023B204612340222ADF80C30039947
:1032D00001F0C8FAA742F3D106F1140704230C2227
:1032E0004146384606F1300500249FED478A01F03B
:1032F000CDFA09E001F0EEFC96ED7A0A0146284687
:10330000013401F05DF92035072CE1B23846F1D9DE
:10331000E1B2013401F0DEFC00230146F0EE480A80
:1033200028461A4696ED7A0A01F018F90C2CEAD1D3
:103330003046364B40F82C3F02F0E6F8344B012281
:1033400006F5D870196801F003FA324B012206F530
:10335000E470196801F0FCF92F4B06F5F070C6F81F
:10336000E03102F0D1F82D4B06F5F270C6F8E431E9
:1033700002F0CAF80123D6F8EC0111A9CDE9133304
:10338000022310301293002315934BF680331193D0
:1033900001F0F4FE384601F087FCD6F8EC41237DBD
:1033A00004F11005FBB928461D4D2368D4E901122C
:1033B000009501F061FF012323755DB0BDEC028B28
:1033C000BDE8F083304604F07BFB25B106F1080030
:1033D00000F060F9FEE6002C7FF4FCAE06F1080078
:1033E00000F058F9F6E6284601F07CFFDBE700BF65
:1033F000E40B00240508050905070506050A06066D
:1034000004020404010A010B6F12033B02070100CE
:10341000706301086C630108020E0100020D0100D7
:10342000E530000888610108103001F063B800BF82
:10343000103001F05BB800BF143001F035BC00BFA4
:1034400038B500F1300400F5D8752046203401F07D
:10345000EDF8AC42F9D138BD704700BF00EB411127
:1034600091ED0F0A704700BF07490022074B01F199
:10347000600010B4302459601A611C601A755DF840
:10348000044BC3E90202704700000030E40B002443
:10349000F0B58C2387B00160002203710124FA2665
:1034A000194605AB8DF8142002964022009323465E
:1034B0000194054602F028FB002840F09B809DF80F
:1034C00014300DF117074022284603F07F030097C0
:1034D000CDE901468DF814308DF81730234629794F
:1034E00002F038FB002840F08580042004F0C4F985
:1034F00005AB4022284600932346CDE901462979B1
:1035000002F002FB002875D19DF81430402200978C
:10351000284603F0BF03CDE901468DF814308DF83D
:1035200017302346297902F015FB002862D10420C8
:1035300004F0A2F90DF11503432228460093234617
:10354000CDE90146297902F0DFFA002852D10DF1C8
:1035500016034822284600932346CDE901462979DF
:1035600002F0D2FA002845D19DF815304322009789
:10357000284643F001038DF815308DF817309DF87B
:10358000163043F00103CDE901468DF8163023468D
:10359000297902F0DFFA68BB9DF8163048220097BF
:1035A00028468DF817302346CDE90146297902F0E7
:1035B000D1FAF8B905AB4022284600932346CDE95D
:1035C0000146297902F0A0FAA0B99DF814202346FB
:1035D0000194284602F0CF040296009740222979F0
:1035E0008DF814408DF8174002F0B4FA003818BF77
:1035F000012000E0012007B0F0BD00BFF0B51023AE
:1036000087B0234C012200250126002702A920466D
:103610000195CDE902234FF48052CDE904670BF008
:1036200027FC642004F06CFD02A94FF48052204670
:10363000CDE9046702261027CDE902670BF018FCDC
:103640000322102302A92046CDE9022300230422ED
:10365000CDE904234FF480520BF00AFC40F23223F0
:10366000042202A9019310232046CDE90223019AE6
:10367000012305924FF4805204930BF0F9FB40F6BE
:10368000060120460BF014FC284607B0F0BD00BF31
:10369000040C00241C4B00221C494FF0400C30B598
:1036A000054689B00220596007219A601A620124F8
:1036B000DA620A224FF4006EDC6006922022CDE925
:1036C000000104200821CDE9020103201021CDE9E9
:1036D000040108206946C3E904024FF4C072181DB2
:1036E000C3E906C24FF48052C3E909E20BF096FB2E
:1036F00038B92846FFF782FF003818BF012009B00B
:1037000030BD204609B030BD000C002440410052BD
:10371000614A0021D0B513688EB00A91002B40F0A9
:10372000B9805E4B01214FF683700C241160022199
:10373000D3F8D4200026032742F48052C3F8D420C3
:10374000D3F8D42002F480520092009AD3F8E020FB
:1037500042F01002C3F8E020D3F8E02002F010029B
:103760000192019AD3F8E02042F04002C3F8E02031
:10377000D3F8E02002F040020292029AD3F8E0204F
:1037800042F00802C3F8E020D3F8E02002F008027B
:103790000392039AD3F8E02042F48072C3F8E02049
:1037A000D3F8E02002F480720492049AD3F8E02067
:1037B00042F08002C3F8E020D3F8E02002F080025B
:1037C0000592059AD3F8E02042F02002C3F8E020E9
:1037D000D3F8E02002F020020692069AD3F8E02007
:1037E00042F00402C3F8E020D3F8E0300C9403F078
:1037F000040307930323079A0B93CDE9080108A953
:10380000274806F0E9FD48F23712022308A92548A7
:103810000C94CDE90823CDE90A6706F0DDFD4CF2F2
:103820000372022308A920480C94CDE90823CDE9AE
:103830000A6706F0D1FD40F2FF62022308A91B4887
:103840000C94CDE90823CDE90A6706F0C5FD4FF6D3
:103850000C72022308A916480C94CDE90823CDE97F
:103860000A6706F0B9FD4FF63F02022308A9114886
:103870000C94CDE90823CDE90A6706F0ADFD2022BE
:10388000022308A90A480C94CDE90A67CDE9082368
:1038900006F0A2FD0EB0D0BDFC0B0024004402587F
:1038A0000010025800180258000C0258002002585C
:1038B000001C0258001402582DE9F04FDFF8108464
:1038C00006460D46144608F118002DED028B89B00E
:1038D00000AF02F069FFD8F8183073B3D8F81C3085
:1038E000D8F80490002B43690BBF4FF0080A4FF043
:1038F000100A4FF0020B4FF0040BB9F1000F2AD061
:10390000A200EA46012B02F1070222F00702ADEB0A
:10391000020D6846ADEB020D694600F03F81022BB7
:1039200000F0D680002B6FD02246C847D5462437FA
:10393000BD46BDEC028BBDE8F08FD8F81C30002BE3
:10394000F5D0D8F804904FF0080A4FF0020B436905
:10395000B9F1000FD4D1FB61D8F80030BB61002B66
:10396000E5D0D54802F092FF6B46BBF1020F7861BB
:1039700008EE103AFB6900F083816A465146A2EBDB
:10398000C40295466200EA46B2FBFBF2AAEBC40011
:1039900085460AEB8200EE46F861ADEB010DF86951
:1039A0000EEB820CC7F810C0EC46ADEB010D00EB3E
:1039B0008201CCF80400CCF8081001EB82013869D0
:1039C000E946CCF80C1000EB8201CCF800A001EB2A
:1039D0008202C9E900E0C9E90212012B00F0648308
:1039E000022B00F06C82002B00F0808162084946B7
:1039F0006046BB69984718EE103A24379D46BD468D
:103A0000BDEC028BBDE8F08F002C8DD01A46D8EDAE
:103A10000C6A9FEDB27A8446331D36F922E00CF130
:103A2000080C07EE90EA33F922E00232F8EEE77A6A
:103A3000944267EE877A67EEA67A4CED027A07EE3B
:103A400090EAF8EEE77A67EE877A67EEA67A4CEDB1
:103A5000017AE2D8F9612246C847984ED8ED0D6A3E
:103A60000020F9692B1D9FED9E7A9FED9E6ADFED88
:103A70009E5A22E0F4EEC67AF1EE10FAC0F2C88443
:103A800047F6FE72D1ED017A45F8202066EEA77A5E
:103A9000F4EEC77AF1EE10FA40F2F080F4EEC67A56
:103AA000F1EE10FAC0F2D58447F6FE7243F82020FA
:103AB0000230083184427FF639AFD1ED007A66EEEC
:103AC000A77AF4EEC77AF1EE10FAD3D83246D9E7E6
:103AD000002C3FF429AFD8ED0C6A84469FED787A2C
:103AE0000022331D8E4656F822100CF1080C07EE0A
:103AF000901A53F822100232F8EEE77A944267EEF9
:103B0000877A67EEA67A4CED027A07EE901AF8EE05
:103B1000E77A67EE877A67EEA67A4CED017AE2D80B
:103B200071462246C7F81CE0C847664ED8ED0D6ABC
:103B30000020F9692B1D9FED6A7A9FED6A6ADFF814
:103B400094C120E0F4EEC67AF1EE10FAC0F2798466
:103B50003246D1ED017A45F8202066EEA77AF4EEE0
:103B6000C77AF1EE10FA40F28780F4EEC67AF1EEF1
:103B700010FAC0F25E84324643F820200230083149
:103B800084427FF6D3AED1ED007A66EEA77AF4EEEA
:103B9000C77AF1EE10FAD5D86246DAE7002C3FF486
:103BA000C3AED8ED0C6A86469FED477A4FF0000C05
:103BB000331D56F82C200EF1080E82F40002A2F5F7
:103BC000000207EE902A53F82C200CF1020CF8EEBC
:103BD000E77A82F400026445A2F5000267EE877A74
:103BE00067EEA67A4EED027A07EE902AF8EEE77AB3
:103BF00067EE877A67EEA67A4EED017AD9D8F96139
:103C00002246C847314ED8ED0D6A0020F9692B1DB8
:103C10009FED337A9FED336ADFF8BCC01FE0F4EE0E
:103C2000C67AF1EE10FAC0F2FC833246D1ED017A89
:103C300045F8202066EEA77AF4EEC77AF1EE10FA86
:103C400018D9F4EEC67AF1EE10FAC0F2DA833246F1
:103C500043F820200230083184427FF667AED1ED70
:103C6000007A66EEA77AF4EEC77AF1EE10FAD6D8AB
:103C70006246DBE76246EBE762467DE7324615E7E0
:103C8000A100D6466208073121F00701ADEB010D16
:103C9000EA46ADEB010D6946ADEB0E0D0AEB820075
:103CA000EC46ADEB0E0D01EB8202F861E946CCE982
:103CB00000A0C9E9001290E6540C00240280FFFF26
:103CC000000000300082FF7F0000003482FF7F0090
:103CD000380C0024007E00807E0080FF0000003849
:103CE00004FF7FBF04FF7F3F00FEFF46002C00F073
:103CF000C982BBF1020FD8F8242000F0FA8279695A
:103D0000C7F8049002EB810E5FED0C5A8A00DCF8D4
:103D100008100EF104007A611A46DCF80C303B61A1
:103D2000331DD7F810903D61FD69C7E902CB8C4681
:103D3000834636F92210D8ED0C7A06EE101A33F9C4
:103D4000221006EE901A3EF92210B8EEC66A07EE6F
:103D5000101AF8EEE66A3BF92210B8EEC77A26EEA2
:103D6000256A66EEA56A27EE257A26EE276A66EEB4
:103D7000A76A27EE277A07EE901A51080232F8EE6A
:103D8000E77A0AEB8100944280ED006A05EB81003E
:103D900067EEA57AC0ED006A0CEB810009EB8101AA
:103DA00080ED007A98ED0C7A67EE877AC1ED007AA3
:103DB000BFD8D7F804903D69D7E902CB60466208C6
:103DC000BB6949469847D8F82C307A69D8ED0D6A16
:103DD0001A441FED3D7A1FED3D6A2B1D904602F1FE
:103DE000040A5FED3F5A0022A84ED9E900EC51E0E9
:103DF000F4EEC67AF1EE10FAC0F2C78247F6FE7012
:103E000045F822000CEB0100D0ED007A66EEA77AAF
:103E1000F4EEC77AF1EE10FA4BD9F4EEC67AF1EE71
:103E200010FAC0F2BA8247F6FE70BBF1020F43F8F7
:103E300022002BD0D9F808000844D0ED007A66EEB5
:103E4000A77AF4EEC77AF1EE10FA36D9F4EEC67A14
:103E5000F1EE10FAC0F2CD8247F6FE7048F822006B
:103E6000D9F80C000144D1ED007A66EEA77AF4EEA1
:103E7000C77AF1EE10FA1ED9F4EEC67AF1EE10FA16
:103E8000C0F2AF8247F6FE714AF822100232944225
:103E90007FF6B1AD51080EEB81008900D0ED007ABC
:103EA00066EEA77AF4EEC77AF1EE10FAA0D83046A3
:103EB000A6E73046B9E73146E6E73046CEE7002CC4
:103EC00000F0E081BBF1020FD8F8243000F0E1816E
:103ED0007A69DCF8081003EB820EC7F804909300AF
:103EE000DFED6B5A0EF1040000227B61DCF80C3030
:103EF0003B61331DD7F810903D61FD69C7E902CBE6
:103F00008C46834656F82210D8ED0C7A07EE101A2C
:103F100053F82210B8EEC76A07EE101A5EF82210A6
:103F2000F8EEC76A07EE101A26EE256A5BF8221033
:103F3000B8EEC77A66EEA56A26EE276A27EE257ADE
:103F400066EEA76A27EE277A07EE901A510802322A
:103F5000F8EEE77A0AEB8100944280ED006A05EB07
:103F6000810067EEA57AC0ED006A0CEB810009EBD9
:103F7000810180ED007A98ED0C7A67EE877AC1EDC9
:103F8000007ABFD8D7F804903D69D7E902CB6046E4
:103F90006208BB6949469847D8F82C307A69D8ED51
:103FA0000D6A1A449FED3E7A9FED3E6A131D9246BC
:103FB000DFF8E4C00022FB612B1D364ED9E9008EEC
:103FC0004EE0F4EEC67AF1EE10FAC0F2FC81304613
:103FD00045F822000EEB0100D0ED007A66EEA77ADC
:103FE000F4EEC77AF1EE10FA49D9F4EEC67AF1EEA2
:103FF00010FAC0F2EF813046BBF1020F43F8220005
:104000002AD0D9F808000844D0ED007A66EEA77AE5
:10401000F4EEC77AF1EE10FA35D9F4EEC67AF1EE85
:1040200010FAC0F2C98130464AF82200D9F80C00D3
:104030000144D1ED007A66EEA77AF4EEC77AF1EE8C
:1040400010FA1ED9F4EEC67AF1EE10FAC0F2AD8184
:104050003146F86940F82210023294427FF6CBAC28
:10406000510808EB81008900D0ED007A66EEA77A4E
:10407000F4EEC77AF1EE10FAA3D86046A8E76046DE
:10408000BAE76146E5E76046CEE700BF0280FFFF82
:10409000000000300082FF7F007E008000000034BE
:1040A00004FF7FBF04FF7F3F002C00F0EB807A69A4
:1040B0000021D8F82430C7F8109003EB820ED7F80F
:1040C0001C909300FD610EF104021FED0C6A7B61F0
:1040D000331D154656F821204808D8ED0C6ABBF16F
:1040E000020F82F40002A2F5000207EE902A53F8B4
:1040F000212082F40002B8EEE77AA2F5000227EE52
:10410000067A07EE902A0AEB8002F8EEE77A27EEAD
:10411000267A67EE867A82ED007A09EB80024FEA12
:10412000800067EEA67AC2ED007A27D05EF82120E3
:1041300082F40002A2F5000207EE902A55F8212031
:1041400082F40002B8EEE77AA2F5000227EE067AC2
:1041500007EE902ADCF80820F8EEE77A024427EE12
:10416000267A67EE867A82ED007A98ED0C7ADCF892
:104170000C2067EE877A0244C2ED007A02318C424D
:10418000A8D8D7F8109060466208BB694946FD6917
:104190009847D8F82C307A69D8ED0D6A1A441FED8B
:1041A000407A1FED406A131D9246DFF8C4C2002218
:1041B000FB612B1DAB4ED9E9008E4EE0F4EEC67AC2
:1041C000F1EE10FAC0F2C580304645F822000EEB41
:1041D0000100D0ED007A66EEA77AF4EEC77AF1EE30
:1041E00010FA49D9F4EEC67AF1EE10FAC0F2BF80A7
:1041F0003046BBF1020F43F822002AD0D9F808005C
:104200000844D0ED007A66EEA77AF4EEC77AF1EEB4
:1042100010FA35D9F4EEC67AF1EE10FAC0F2AE809B
:1042200030464AF82200D9F80C000144D1ED007A5A
:1042300066EEA77AF4EEC77AF1EE10FA1ED9F4EE24
:10424000C67AF1EE10FAC0F28B803146F86940F878
:104250002210023294427FF6CEAB510808EB810067
:104260008900D0ED007A66EEA77AF4EEC77AF1EE17
:1042700010FAA3D86046A8E76046BAE76146E5E7CA
:104280006046CEE7224649466046BB699847FFF73D
:10429000B2BBC7F810B0002298ED0C6A331DDFEDF9
:1042A000726AD7F81CB0786956F8221007EE901A97
:1042B00053F82210B8EEE77A07EE901A510802324E
:1042C000F8EEE77A27EE267A0AEB810E94420BEBA2
:1042D000810167EEA67A27EE067A67EE867A8EED82
:1042E000007AC1ED007ADFD88300D7F810B07B6187
:1042F0004DE61A46C7F810B098ED0C6A331DDFED95
:104300005B6AD7F81CB0786936F9221007EE101AEC
:1043100033F9221007EE901AB8EEC77A510802322C
:10432000F8EEE77A27EE267A0AEB810E94420BEB41
:10433000810167EEA67A27EE067A67EE867A8EED21
:10434000007AC1ED007ADFD88300D7F810B07B6126
:1043500034E5F0EE675AFEEEE45A15EE900A34E7C3
:10436000F0EE675AFEEEE45A15EE901A6EE7F0EEA4
:10437000675AFEEEE45A15EE900A3AE7F0EE675AF5
:10438000FEEEE45A15EE900A4BE767EEA57AFDEED5
:10439000E77A17EE900A00B232E567EEA57AFDEEF5
:1043A000E77A17EE900A00B23FE5F0EE675AFEEEAC
:1043B000E05A15EE901A4CE6F0EE675AFEEEE05A1F
:1043C00015EE900A30E6F0EE675AFEEEE05A15EE72
:1043D000900AFDE5F0EE675AFEEEE05A15EE900AFF
:1043E0000AE667EEA57AFDEEE77A17EE901A09B2B3
:1043F0004AE567EEA57AFDEEE77A17EE900A00B27D
:104400002CE5F0EE675AFEEEE45A15EE902A1FE412
:1044100067EEA57AFDEEE77A17EE902A12B2FFF763
:1044200031BBF0EE675AFEEEE45A15EE902AFFF724
:10443000FDBBF0EE675AFEEEE05A15EE902AFFF74C
:104440009BBBF0EE675AFEEEE05A15EE902AFFF79E
:1044500080BB67EEA57AFDEEE77A17EE902A12B2DE
:10446000FFF724BB82FF7F0000000030000000380F
:104470007E0080FF30B5184C154685B0046004F10D
:10448000080EEC460FC98EE80F00D4ED047AF5EE65
:10449000C07A8CE80F00F1EE10FA1ADDB7EE006A70
:1044A00094ED057A27EE277AC6EE276A84ED0D7A19
:1044B000C4ED0C6A6DB1204640F8185F02F074F943
:1044C000064903690020064A2162A262E36005B042
:1044D00030BD012005B030BD380C0024C0200030B4
:1044E000C000003000680830704700BF0068183016
:1044F00002F0BAB930B5046883B00D46E3694BB138
:10450000A3680020E26A616A9B00009004F11C002D
:1045100002F04CF9A3680748A26A9B00216A009048
:1045200004F1180002F042F90020C4E9005003B081
:1045300030BD00BFB938000810B4074B4FF07E51B2
:1045400030240022032019619C60D8605DF8044B80
:104550005961C3E906227047380C0024F6EE007A50
:104560009FED166A20EE207A0160F7EE006A80ED7A
:10457000036A80ED020A27EE277AC6EE877AF4EE08
:10458000E67AF1EE10FA11DDF0EE667A4FF07E5128
:104590004FF0000C02760022C0ED017AC0F814C082
:1045A000016143768276C0ED070A7047F4EEC67A61
:1045B000F1EE10FAEAD5F0EE467AE7E700000000E7
:1045C000DFED187AB6EE007AF7EE006A9FED166A14
:1045D00060EE277A016080ED036A80ED020A67EEE3
:1045E000877A86EEA77AB4EEE67AF1EE10FA10DD5D
:1045F000B0EE667A4FF0804C4FF07C514FF48072F1
:10460000012380ED017AC0F810C0416102838376F6
:104610007047B4EEC67AF1EE10FAEBD5B0EE467AFA
:10462000E8E700BF6F12033B000000000268037E52
:10463000128807EE902AFBEEC87A1BB1B7EE007A1B
:1046400077EE677AD0ED056A90ED047A77EEE67A38
:10465000437E67EE877A0BB1F1EE677A90ED030A3D
:1046600090ED017A77EEC07AA7EE270A80ED030A73
:10467000704700BF30B585B004460025ADF80C107A
:10468000ADF80820ADF8043003F0EEF8BDF80C20CA
:104690004FF48073206004F118002283BDF80820D5
:1046A0006383E383A283257100F02EFF04F11C00D5
:1046B00000F02AFF9FED060A019904F1080000F0BE
:1046C00089F84FF6FF736562238405B030BD00BFE3
:1046D00000000000F8B5044603F0C6F80026236881
:1046E0002671834205D104F10800BDE8F84000F0CE
:1046F0008BB8012794F82050206004F11800BD40C9
:10470000277100F0DDFF6DB2284394F82150BD40C1
:1047100084F8200004F11C0000F0D2FF94F820304F
:104720006DB2666203F003032843022BC0B284F823
:10473000210009D000F003000228D4D1002BD2D1EF
:104740004FF0FF336362CEE78307CCD16762CAE7DD
:1047500070B584B0002504461646ADF80C102B4603
:104760002A460399009500F0DDFDA582A67504B0E8
:1047700070BD00BFDFED167A8C46B4EE670A10B547
:1047800004468646F1EE10FA2DED028B80ED080A04
:1047900048BFB0EE670AC0ED090AB0EE608A80F843
:1047A0003420BCE80F00AEE80F009CE80F008EE854
:1047B0000F0010F0D3FCF0EE407AB0EE480AC4EDE2
:1047C0000A7A10F0CBFC84ED0B0ABDEC028B10BD15
:1047D00095BFD63370B5044682B0C1F30726CDB27B
:1047E000ADF8041003F040F84FF480724FF001234D
:1047F0002060A01DA571A280E671A36002B0BDE893
:10480000704000F081BE00BF38B5044603F02CF8BC
:10481000002223682271834210D00122A57AE37A14
:10482000954020602271A01D6DB243B900F048FF91
:1048300040B22843C0B27F28A0720AD038BD00F031
:104840003FFFB0FA80F040092843C0B27F28A07231
:10485000F4D103F009F807EE900AF8EE677AC4ED98
:10486000037A38BD00B583B04FF0000E4FF0030C53
:104870004274ADF80410BDF8043080F810E0A0F8E0
:1048800002C0038003B05DF804FB00BF2DE9F04FC8
:10489000DFF81C8300258DB0C04C037008F1400385
:1048A0004260074601920E46202229464046C4F83F
:1048B0006831C4F86481CDE90255CDE90455CDE9EC
:1048C0000655CDE90855CDE90A5510F0EFFF202235
:1048D000294604F5A170C4F83151C4F83551C4F823
:1048E0003951C4F83D5110F0E1FF019B84F8485262
:1048F00084F830317A68002A6AD02B4604F5987122
:10490000454606F1100A9E46F01856F803B0E21824
:104910000EF1010ED0F80CC0D0F80490D0F8088049
:1049200044F803B0C2F80CC04FF0000CC2F8049079
:10493000C2F80880008A25F802CB10821AF80320FA
:1049400001F8012F002A70D07A684FF0010012336D
:10495000724584F84802D7D84FF4802290489DF8D9
:10496000043008214FF000084FF00009C4F88431EA
:104970000023C4E95B020122C4F8743184F8803159
:10498000C4E95E2194F84812C4E96489A9B3C4F863
:104990009821002284F8813184F888313B78C4E979
:1049A0006722002B38D0012200200121013B84F82E
:1049B000A421C4E96C01082B30D8DFE813F0BD0056
:1049C000C200C700CC00D100D600DB00E100E80047
:1049D0009DF804300121C4F87421C4F884314FF4E7
:1049E000802384F880216E4AC4E95B2308230022D7
:1049F000C4E95E130023C4E964230123002284F880
:104A00008131002384F888310323C4F898313B783E
:104A1000C4E96722002BC6D184F8A431614803F0B1
:104A2000A7FF034638B1FFBEFEE77A68123372452E
:104A30003FF66AAF90E702A95A48029304F0F6F8ED
:104A40008246002876D1042240F2FF710A90CDE917
:104A5000081294F83021002A00F0F3804FF0060885
:104A60000AEBCA034FEACA0904EB43035B7C072B3A
:104A700007D8DFE803F0595C5653504D4A0407232A
:104A800007930FFA8AF6D14406EBC60604EB4909F0
:104A900004EB46077500384600F036FD99F81030F3
:104AA000042B00F3AA80022B00F3BD8000F0B98034
:104AB00004EB0A03002283F8202114F81630002B9F
:104AC00078D0022B00F08A80012B40F0B2807B78F6
:104AD000012B00F0B080002B334B18BF002305A939
:104AE0003048CDE9053803F06FFB002840F0AC807A
:104AF0000AF1010A94F830315FFA8AFA534540F21C
:104B0000A0802A4B53F82A80AAE706230793B8E728
:104B100005230793B5E704230793B2E7032307931D
:104B2000AFE702230793ACE700230793A9E701232C
:104B30000793A6E7FFBEFEE703224023C4E96A23EA
:104B40006CE707226023C4E96A2367E70F2280230A
:104B5000C4E96A2362E71F22A023C4E96A235DE750
:104B60003F22C023C4E96A2358E77F22E023C4E937
:104B70006A2353E7FF224FF48073C4E96A234DE7A9
:104B800040F2FF124FF49073C4E96A2346E740F203
:104B9000FF324FF4A073C4E96A233FE7700C00248E
:104BA00000200240DC0D00240002B02574630108DF
:104BB000C04000307B78062B37D0072B3DD0022B2E
:104BC0004AD0032B4AD0002B4CD0012B48D0042BC9
:104BD0004AD0052B254B18BF002380E77B78042B98
:104BE00025D0052B2BD08BB3012B31D0022B31D00C
:104BF000032B1F4B18BF002371E70323043504EB7D
:104C00000A0B4FF0000925448BF82031284609F1A2
:104C1000010900F079FC9BF8203104354B45F5DCA7
:104C20004BE70123EAE70223E8E7124B57E7124B71
:104C300055E7002353E7114B51E7114B4FE7114B59
:104C40004DE70DB0BDE8F08FFFBEFEE70E4B46E727
:104C50000E4B44E70E4B42E70E4B40E70E4B3EE750
:104C60000E4B3CE70E4B3AE70E4B38E70000B84FCF
:104C7000002090360800900C1000C0102000F014A6
:104C80008000501D000180210004002A0008302E01
:104C9000001060320040C03A0080F03E00005247F1
:104CA000000021430000844B38B5094C40F2FF72EC
:104CB0004FF0011104F5B675284603F065FF94F82E
:104CC0003021D4F864112846BDE8384003F0D0BC48
:104CD000700C0024034B0F29D3F8640198BF00EB3C
:104CE00041007047700C0024214B02689A4200D0AA
:104CF0007047204A00232048D2F8D81030B51F4C06
:104D000041F0200183B0C4F8D001092004F5E87512
:104D1000C4E975034FF48060C2F8D810D2F8D820E7
:104D20004FF40061C4E9773094F8480202F02002A1
:104D3000C4F8E4114FF40051984201922846C4F897
:104D4000E811C4E97C33019B14BF00234FF4807346
:104D5000C4F8EC3104F068FB08B1FFBEFEE704F5CF
:104D6000B673C4F8B851C4F8083203B030BD00BF00
:104D7000002002400044025840000240700C002411
:104D8000014804F0D7BF00BF400E002402682DE99F
:104D9000F84F4B4B9A4201D0BDE8F88F494D95F83A
:104DA0004832002BF8D095F83031002B77D0002412
:104DB00005F10C0905F5A17605F59877A04613E0F5
:104DC00003F0010117F811BCA9F1080000F086FCFE
:104DD000BBF1010F25D895F83031013409F11209E2
:104DE0000236A2B293422BD917F8012F002AF4D031
:104DF000D5F864310021327833F81400D5F86831E1
:104E000003EB041323F81200338801339BB2338081
:104E10005FFA83FA3A789A42D2D88A46A6F8008096
:104E2000D0E7CAF34001A9F1040000F057FCBBF140
:104E3000020FCAF38001CED0484600F04FFCCAE70B
:104E4000002395F84802204909229842C5F8D83134
:104E50004FF48060C5F8D011C5F8D4214FF400613B
:104E60004FF40052C5F8DC3108BF4FF48073C5F829
:104E7000E821C5E9780100221448C5E97B32C5F86C
:104E8000F42104F0D1FA08B1FFBEFEE795F8302115
:104E9000D5F864110E48BDE8F84F03F0E9BB0A49A4
:104EA00009224FF48060C5F8D831C5E974124FF477
:104EB00000614FF40052C5E97730C5E97912DAE7AD
:104EC00000200240700C002440000240400E0024EC
:104ED000DC0D0024704700BF4F4B02689A4200D09F
:104EE00070474E4BD3F8E81030B541F000514C4CB0
:104EF00085B0D4F84821C3F8E810D3F8E81001F0E1
:104F0000005101910199D3F8E01041F00101C3F87B
:104F1000E010D3F8E03003F001030293029B32F07B
:104F200002033DD0013A012A6BD9D4F84C31012B50
:104F30000AD000223620114603F0ECFE362005B0E0
:104F4000BDE8304003F024BFD4F8483133F002020A
:104F500034D0013B012BECD8442240233149324D5F
:104F6000C4F88C1000212846C4F8B010C4E92423EA
:104F700000224FF48063C4E926234FF400624FF40B
:104F80000053C4E928234FF480724FF48033C4E9FE
:104F90002A2304F049FA80B9E560C4F8C440C8E7A0
:104FA0004FF48062032303A8ADF80C208DF80E3077
:104FB00000F0AAFAD4F84821B4E7FEE71B4BA2633D
:104FC0004322636140231A4DC4E9062300224FF4B3
:104FD00080632846C4E908234FF400624FF400536D
:104FE000C4E90A234FF480724FF48033C4E90C23E0
:104FF00004F01AFA20B9D4F84831A560E464A8E7AF
:10500000FEE74FF4A062032303A8ADF80C208DF84F
:105010000E3000F079FA88E700740040004402582E
:10502000C00E0024280402404C0F0024100402404B
:10503000D40E0024014804F07DBE00BFD40E00242D
:10504000014804F077BE00BF4C0F002410B5054C9A
:10505000204604F019F804F58270BDE810400AF00B
:10506000F7BF00BFC00E0024164BD3F84821D3F879
:105070005811022A4FEA510130B583B00CD088B2E2
:10508000D3F85C21D3F8644102EB400300930CB1E8
:105090006846A04703B030BDD3F86021002AF9D09C
:1050A00088B2D3F85C41D3F8645104EB400402EBBE
:1050B0004002CDE90042002DECD06846A84703B07D
:1050C00030BD00BFC00E0024134BD3F84821022A84
:1050D00010B582B00CD0D3F85C11D3F864210091E4
:1050E00022B1D3F8581168464908904702B010BD64
:1050F000D3F86021002AF9D0D3F85C11D3F86441C9
:10510000CDE90012002CF1D0D3F8581168464908B7
:10511000A04702B010BD00BFC00E0024094BD3F859
:105120004821022A0DD000B5D3E9581283B001916D
:1051300022B1D3F8581101A84908904703B05DF88F
:1051400004FB7047C00E00240B4BD3F84821022A01
:1051500010D0D3F8581110B5D3E95824C1F34F0338
:1051600082B0490802EB430301930CB101A8A047A8
:1051700002B010BD704700BFC00E002430B58C4691
:105180003A4C3B4D8DB0046004F5A27EBCE80F00A4
:10519000AEE80F00DCF8003020462560CEF8003085
:1051A00003F084FE0023D4F84C510393C5B11622BA
:1051B000012D049217D00022D4F85411D4F84831AC
:1051C0009142CDE9062218BF0222059233F0020275
:1051D00035D0013B012B3CD9002528460DB030BD10
:1051E00002230493E7E7234A0093C4F80C31C4F880
:1051F0001431C4F80421C4F81C31CDE9013302F0A4
:10520000D7FCD4F844314BF68032C4F80851002B57
:1052100008BF1346B0FBF3F304F58270C4F81031F5
:105220000AF080FD0028D8D120230290694604F5B9
:10523000827000930AF0C4FF0028BCD0CDE703A918
:105240000A4803F055FF78B9D4F84831013B012BE7
:10525000C2D8102203A9054803F04AFF051E18BF53
:10526000012528460DB030BD0125B6E7C00E00244B
:10527000007400400010004070B504681D4682B004
:105280001046D4F84C31012B03D0D4F84831022B0E
:1052900024D1D4F85031069A002BC4F85C11C4F81C
:1052A00064212B460CBF08260026C4F860010A467C
:1052B000C4F8585100212046009603F00DFED4F8A2
:1052C00060212B4610212046009603F005FE04F5D0
:1052D00082700AF0C7FD002002B070BD012002B04C
:1052E00070BD00BF10B50468D4F84C31012B09D152
:1052F000D4F8483133F0020106D0013B012B0BD921
:10530000002010BD012010BD204603F071FED4F82E
:105310004831013B012BF3D81021204603F068FEF1
:10532000002010BD10B592B0ADF804100180C9B2D4
:10533000149C0B29C460C0E901233FD090F801C040
:10534000BCF10F0F3AD8022A3FD0032A02D0012A1B
:1053500000D000220E92012B02D0022B18BF002396
:10536000022C0F932CD0032C2AD0012C28D0002300
:105370000A29109327D85C4A02EB812202610A298C
:1053800014D8DFE801F0A39587796B5D4F41332591
:105390000600564BD3F8E01041F48061C3F8E010EA
:1053A000D3F8E03003F480630C930C9B01230DA928
:1053B000104603FA0CF30D9305F00EF812B010BD71
:1053C0000A291094D7D90022D8E711220E92C2E7F9
:1053D000464BD3F8E01041F40071C3F8E010D3F865
:1053E000E03003F400730B930B9BDFE73F4BD3F8E4
:1053F000E01041F48071C3F8E010D3F8E03003F41A
:1054000080730A930A9BD1E7384BD3F8E01041F040
:105410008001C3F8E010D3F8E03003F08003099373
:10542000099BC3E7314BD3F8E01041F04001C3F8CA
:10543000E010D3F8E03003F040030893089BB5E791
:105440002A4BD3F8E01041F02001C3F8E010D3F864
:10545000E03003F020030793079BA7E7234BD3F823
:10546000E01041F01001C3F8E010D3F8E03003F091
:1054700010030693069B99E71C4BD3F8E01041F00C
:105480000801C3F8E010D3F8E03003F008030593F7
:10549000059B8BE7154BD3F8E01041F00401C3F8EE
:1054A000E010D3F8E03003F004030493049B7DE79D
:1054B0000E4BD3F8E01041F00201C3F8E010D3F82E
:1054C000E03003F002030393039B6FE7074BD3F82D
:1054D000E01041F00101C3F8E010D3F8E03003F030
:1054E00001030293029B61E7000002580044025846
:1054F00008B5012143780069994089B205F074F933
:10550000003818BF012008BD8378022B30B504464F
:105510008FB037D0032B33D0012B31D000230A9327
:10552000E378012B2AD0022B28D000230B930023F1
:1055300020460C9302F0C2FC0546204602F0C6FC51
:1055400023780990082B13D8DFE803F01F32455861
:105550006B7E91A40500594BD3F8E02042F4807291
:10556000C3F8E020D3F8E03003F480730893089B7D
:1055700009A9284604F030FF0FB030BD0B93D6E7E1
:105580000A93CDE711230A93CAE74C4B09A9284691
:10559000D3F8E02042F00102C3F8E020D3F8E03075
:1055A00003F001030093009B04F016FF0FB030BD21
:1055B000424B09A92846D3F8E02042F00202C3F882
:1055C000E020D3F8E03003F002030193019B04F0E4
:1055D00003FF0FB030BD394B09A92846D3F8E020AE
:1055E00042F00402C3F8E020D3F8E03003F00403F3
:1055F0000293029B04F0F0FE0FB030BD2F4B09A9BF
:105600002846D3F8E02042F00802C3F8E020D3F89F
:10561000E03003F008030393039B04F0DDFE0FB0BA
:1056200030BD264B09A92846D3F8E02042F01002ED
:10563000C3F8E020D3F8E03003F010030493049B98
:1056400004F0CAFE0FB030BD1C4B09A92846D3F8A0
:10565000E02042F02002C3F8E020D3F8E03003F06D
:1056600020030593059B04F0B7FE0FB030BD134B2C
:1056700009A92846D3F8E02042F04002C3F8E02010
:10568000D3F8E03003F040030693069B04F0A4FE39
:105690000FB030BD094B09A92846D3F8E02042F0ED
:1056A0008002C3F8E020D3F8E03003F080030793D2
:1056B000079B04F091FE0FB030BD00BF00440258BC
:1056C00038B5054602F0FAFB0446284602F0FEFB18
:1056D00001462046BDE8384005F086B870B506465C
:1056E0000D4602F0EBFB0446304602F0EFFB2A1EAB
:1056F0000146204618BF0122BDE8704005F07AB887
:105700000023122270B586B0CDE90223049303680A
:10571000032B01D804230593061D841D304602F097
:10572000CDFB0546304602F0D1FB034601A92846D1
:10573000019304F051FE204602F0C0FB03462046D0
:105740001C4602F0C3FB01A903462046019304F066
:1057500043FE06B070BD00BF634A0368934210B5B4
:105760008CB028D0614A934258D0614A934200F0ED
:105770009480604A934201D00CB010BD5E4C5F48EB
:10578000D4F8E03043F00203C4F8E030D4F8E0305D
:1057900003F002030A930A9BFFF7B2FFD4F8F43038
:1057A00043F08003C4F8F430D4F8F43003F08003FD
:1057B0000B930B9BE0E7504C5148D4F8E03043F09A
:1057C0000203C4F8E030D4F8E03003F002030193A0
:1057D000019BFFF795FFD4F8E83000221F2043F427
:1057E00000131146C4F8E830D4F8E83003F400138D
:1057F0000293029BD4F8D83043F00103C4F8D830A8
:10580000D4F8D83003F001030393039B03F082FA2A
:105810001F200CB0BDE8104003F0BABA364C39482E
:10582000D4F8E03043F08003C4F8E030D4F8E0303E
:1058300003F080030493049BD4F8E03043F00203A8
:10584000C4F8E030D4F8E03003F002030593059B80
:10585000FFF756FFD4F8E8300022212043F48003FC
:105860001146C4F8E830D4F8E83003F48003069316
:10587000069BD4F8D83043F00103C4F8D830D4F8EC
:10588000D83003F001030793079B03F043FA21206C
:105890000CB0BDE8104003F07BBA1B48FFF730FFA7
:1058A000154B00224820D3F8E840114644F4000488
:1058B000C3F8E840D3F8E84004F400040894089CD6
:1058C000D3F8D84044F00104C3F8D840D3F8D83016
:1058D00003F001030993099B03F01CFA48200CB064
:1058E000BDE8104003F054BA005400400058004096
:1058F000005C0040001C005800440258B412002410
:105900002C10002404110024DC1100242DE9F043A4
:105910001A4B87B000254FF010099E46EC46184BF5
:10592000FF22E04667461A700EF118060EF13004A9
:10593000CDE90055CDE90255ADF80090BCE80F0067
:10594000CDE90455AEE80F009CE803000095ADF8E2
:1059500000908EE80300B8E80F000FC69CE8030033
:105960000095ADF8009086E803000FCF0FC49CE8C7
:10597000030084E8030007B0BDE8F08304000024BE
:105980002810002410B5EFF3108472B6084B1A7873
:10599000120602D504B962B610BD1B78D82205489C
:1059A0005BB202FB0300143004F0C4F9F2E700BF5D
:1059B000281000242C100024014805F073BE00BFFD
:1059C000B8100024014805F06DBE00BF90110024FE
:1059D000014805F067BE00BF681200242DE9F043BE
:1059E0000F68D8243F4D85B007FB04F4032F05EB67
:1059F0000403036040DCCB680E46012B3CD84DD03D
:105A00004FF0D808B646DFF8FC9008FB0758BEE810
:105A10000F00C446ACE80F00DEF800300DF1100EA8
:105A2000CCF80030D8F808C099E80F000EE90F0054
:105A30000EEB8703BCF1010F53F8103CC8F88C3013
:105A400031D0BCF1020F42D0BCF1000F35D0317C17
:105A50008C34D823002201202C4403FB0753490037
:105A6000C3E92602C3F894102046C3E92822C3E9FB
:105A70002A2205F049FB18B1012005B0BDE8F083EA
:105A80000146204605F01AFE0028F5D101462046C1
:105A900005F03EFE003818BF0120EEE70B7C103BFE
:105AA000672BADD9E8E702F081F80F4B98420CBFA5
:105AB0000E4B0F4BC8F89030C9E702F077F80A4B4D
:105AC00098420CBF0B4B0C4BC8F89030BFE702F06C
:105AD0006DF8054B98420CBF084B094BC8F8903045
